:020000040000FA
:1000000000100020A90200002D080000C906000011
:1000100000000000000000000000000000000000E0
:10002000000000000000000000000000B508000013
:100030000000000000000000B1080000F909000005
:10004000A90A0000490B0000BB020000B308000031
:10005000BB0200004F0300004D0A0000BB0200007D
:10006000490A00004B0A0000BB0200006F030000B9
:100070006D030000B7080000E90B0000CB0600008C
:10008000890300008B0300008D0300005103000072
:1000900053030000550300005903000099080000B5
:1000A000BB020000AD080000BB020000AF0800006A
:1000B0008103000083030000850300008703000024
:1000C0000000000000000000000000000000000030
:1000D0000000000000000000000000000000000020
:1000E0000000000000000000000000000000000010
:1000F0000000000000000000000000000000000000
:1001000000000000000000000000000000000000EF
:1001100000000000000000000000000000000000DF
:1001200000000000000000000000000000000000CF
:1001300000000000000000000000000000000000BF
:1001400000000000000000000000000000000000AF
:10015000000000000000000000000000000000009F
:10016000000000000000000000000000000000008F
:10017000000000000000000000000000000000007F
:10018000000000000000000000000000000000006F
:10019000000000000000000000000000000000005F
:1001A000000000000000000000000000000000004F
:1001B000000000000000000000000000000000003F
:1001C000000000000000000000000000000000002F
:1001D000000000000000000000000000000000001F
:1001E000000000000000000000000000000000000F
:1001F00000000000000000000000000000000000FF
:100200000000000000F002F800F03EF80CA030C83A
:10021000083824182D18A246671EAB4654465D4682
:10022000AC4201D100F030F87E460F3E0FCCB6460E
:100230000126334200D0FB1AA246AB46334318478F
:10024000F80B0000180C0000103A02D378C878C1EF
:10025000FAD8520701D330C830C101D504680C6008
:10026000704700000023002400250026103A01D327
:1002700078C1FBD8520700D330C100D50B6070475E
:100280001FB51FBD10B510BD00F02FF81146FFF7C8
:10029000F7FF00F06FFD00F047F803B4FFF7F2FF3F
:1002A00003BC00F04DF800000848804708480047AC
:1002B000FEE7FEE7FEE7FEE7FEE7FEE7FEE70000FB
:1002C00004480549054A064B70470000FD09000037
:1002D00005020000B0030020B0060020B00400209A
:1002E000B0040020704770477047754600F024F84E
:1002F000AE46050069465346C008C000854618B0A2
:1003000020B5FFF7DDFF60BC00274908B646002690
:10031000C0C5C0C5C0C5C0C5C0C5C0C5C0C5C0C5B5
:10032000403D49008D46704710B50446C046C04662
:100330002046FFF7B2FF10BD004870474C03002075
:1003400001491820ABBEFEE7260002007047704747
:1003500070477047704700000348406940084000FC
:10036000401C01494861704700800A40704770474F
:1003700010B500F03BFB00F0A9F900F079FC10BDCE
:10038000704770477047704770477047704700006C
:1003900070B51C46130000F028FC100915212D39FA
:1003A00045515D6975818D99A5B1BDC90D68172647
:1003B000B5430D605F4B604E33602B4623430343D0
:1003C0000B60B4E04D681726B5434D60594B5A4E4B
:1003D00033602B46234303434B60A8E08D68172608
:1003E000B5438D60534B544E33602B462343034338
:1003F0008B609CE0CD681726B543CD604D4B4E4ECB
:1004000033602B4623430343CB6090E00D691726EE
:10041000B5430D61474B484E33602B46234303439E
:100420000B6184E04D691726B5434D61414B424E47
:1004300033602B46234303434B6178E08D691726D5
:10044000B5438D613B4B3C4E33602B462343034306
:100450008B616CE0CD691726B543CD61354B364EC7
:1004600033602B4623430343CB6160E00D6A1726BC
:10047000B5430D622F4B304E33602B46234303436D
:100480000B6254E04D6A1726B5434D62294B2A4E44
:1004900033602B46234303434B6248E08D6A1726A3
:1004A000B5438D62234B244E33602B4623430343D5
:1004B0008B623CE0CD6A1726B543CD621D4B1E4EC4
:1004C00033602B4623430343CB6230E00D6B17268A
:1004D000B5430D63174B184E33602B46234303433C
:1004E0000B6324E04D6B1726B5434D63114B124E41
:1004F00033602B46234303434B6318E08D6B172671
:10050000B5438D630B4B0C4E33602B4623430343A3
:100510008B630CE0CD6B1726B543CD63054B064EC0
:1005200033602B4623430343CB6300E000BF00BF8F
:1005300070BD00009A65FA050008084030B5044611
:10054000130000F052FB1009141F2A35404B56616E
:100550006C77828D98A3AEB90868C025A84308605F
:10056000574B584D2B60034623430B60A5E048686A
:10057000C025A8434860524B524D2B60034623438D
:100580004B609AE08868C025A84388604C4B4D4D6D
:100590002B60034623438B608FE0C868C025A843C7
:1005A000C860474B474D2B6003462343CB6084E034
:1005B0000869C025A8430861414B424D2B600346A2
:1005C00023430B6179E04869C025A84348613C4B4F
:1005D0003C4D2B60034623434B616EE08869C02588
:1005E000A8438861364B374D2B60034623438B610C
:1005F00063E0C869C025A843C861314B314D2B6009
:1006000003462343CB6158E0086AC025A84308622B
:100610002B4B2C4D2B60034623430B624DE0486A65
:10062000C025A8434862264B264D2B600346234332
:100630004B6242E0886AC025A8438862204B214D66
:100640002B60034623438B6237E0C86AC025A8436A
:10065000C8621B4B1B4D2B6003462343CB622CE02F
:10066000086BC025A8430863154B164D2B60034645
:1006700023430B6321E0486BC025A8434863104B1C
:10068000104D2B60034623434B6316E0886BC02557
:10069000A84388630A4B0B4D2B60034623438B63AF
:1006A0000BE0C86BC025A843C863054B054D2B6004
:1006B00003462343CB6300E000BF00BF30BD000012
:1006C0009A65FA05000808407047704710B5002386
:1006D0001A46012189071846FFF75AFE0023012216
:1006E00091071846FFF754FE00230A2251071846C7
:1006F000FFF74EFE00230B22012189071846FFF762
:1007000047FE0022012189078020FFF717FF012201
:1007100091078020FFF712FF0A2251078020FFF780
:100720000DFF0B22012189078020FFF707FF0C48EE
:10073000006A400840000A4908620846006A02212F
:100740008843074908620846006A09158843044936
:1007500008620846006AC91488430149086210BD4E
:100760008000004010B500F047F816480078C00738
:10077000C00F002804D014A20221032000F0E7FAE1
:10078000104800788007C00F002804D011A2022171
:10079000032000F0DCFA0B4800884005C00F002859
:1007A00004D00FA20221032000F0D1FA05480088EE
:1007B0000005C00F002804D00CA20221032000F085
:1007C000C6FA10BD000000205332B1BBB0B4CFC296
:1007D000000000005333B1BBB0B4CFC20000000032
:1007E0005334B1BBB0B4CFC2000000005335B1BB2D
:1007F000B0B4CFC200000000002008490968084AD0
:10080000514088B2114608400649098841400140DC
:10081000054A1180034908807047000080000040AD
:10082000030C0000020000200000002070470000C0
:100830000A480B49C8610A484038006889050843DE
:1008400007494039086000BF054840380068012169
:10085000890708400028F7D0704700009A65FA051C
:100860004010084030B5094C6468094D2C40074DD4
:100870006C6023460C01044395022C432343054C32
:10088000024D4035EC61014C636030BD0010084002
:100890000EF3FFFF9A65FA050348006B400840001D
:1008A000401C01490863704740400A407047704748
:1008B000704770477047704700B539483949C8617B
:1008C00038484038006B01214903884340183549B6
:1008D00040390863032207210020FFF7C3FFFFF719
:1008E000A7FF2F482F49C8612F4848612C48C8618D
:1008F000084600690121890488432A49086128487B
:10090000C861002027494039C86025482549C86189
:1009100024484038C068000A000222494039C860B3
:100920001F482049C8611F484038C0680F2109028C
:1009300088431C494039C86019481A49C861194898
:10094000403840680F21090688430121C906401834
:1009500014494039486012481249C861114840386A
:1009600040680721090788430121890740180D497C
:10097000403948600A480B49C8610A4840388068D5
:1009800080088000801C07494039886000BF054806
:1009900040388068C006C00F0028F8D000BD0000B5
:1009A0009A65FA0540100840CCCC5FA00B480C4972
:1009B000C8610B4840388068032109028843FF3032
:1009C000FF300230064940398860064806494861D0
:1009D0000020886103200861704700009A65FA05CD
:1009E00040100840E703000000E000E000B5FFF71A
:1009F00063FFFFF7DBFF00BD70470000104811499F
:100A0000C8610020C0430F49403908610C480D49B6
:100A1000C8610020C0430B49403948610848094972
:100A2000C8610020C043074940398861044805492E
:100A3000C8610020C04303494039C86170470000C5
:100A40009A65FA05401008407047704715480069DC
:100A500002218843801C134908610846006904216B
:100A60008843001D0F490861084600690821884332
:100A700008300C4908610846006949158843401848
:100A80000849086108460069091588434018054966
:100A90000861084600690121C902884340180149DC
:100AA0000861704700C00A402449086820210140BD
:100AB000002924D02021214A51602149898A002916
:100AC00018DD1F49898A491E8AB21D498A82498ACE
:100AD000491C8AB21A494A82498A1A4A515C174A01
:100AE000403A11601649498AFA2908DB0022144964
:100AF0004A8204E0002212490A824A828A75102141
:100B00000140002918D00D4940390968CAB20C4982
:100B10000B8B8639CA548631898B491C8AB20849A5
:100B20008A83098B491C8AB205490A83098B642987
:100B300002DB002202490A8370470000400009409E
:100B4000840100200400002024490868202101407D
:100B5000002924D02021214A51602149898A002975
:100B600018DD1F49898A491E8AB21D498A82498A2D
:100B7000491C8AB21A494A82498A1A4A515C174A60
:100B8000403A11601649498AFA2908DB00221449C3
:100B90004A8204E0002212490A824A828A751021A0
:100BA0000140002918D00D4940390968CAB20C49E2
:100BB0000B8B8639CA548631898B491C8AB2084905
:100BC0008A83098B491C8AB205490A83098B6429E7
:100BD00002DB002202490A837047000040100940EE
:100BE00028030020A8010020704730B47446641E1A
:100BF0002578641CAB4204D3635D5B00E31830BC12
:100C000018471D46F8E70000134A144BDA61134AEF
:100C1000403A926803231B029A43FF32FF320232AA
:100C20000E4B403B9A600E4A506100220C4B9A6179
:100C300001221A6100BF0A4A1169CA07D20F002AAD
:100C400004D0012212040A40002AF4D00022044BEE
:100C50001A619A61704700009A65FA0540100840D1
:100C600000E000E010B5012000F0A2F810BD000087
:100C700010B52248006A0821084320490862084646
:100C8000006A102108431D4908620846006A402195
:100C900008431A4908620846006A80210843174938
:100CA00008620846006AC913084314490862C81359
:100CB00088613220FFF7A8FF0120C0030F49486177
:100CC0003220FFF7A1FF40200C494861FF20F5309A
:100CD000FFF79AFF302000F06BF80C2000F068F866
:100CE000012000F065F8022000F062F8802000F09A
:100CF0005FF880200149886110BD0000802000401D
:100D000070B505460C46012D06D0022D0AD0032DE4
:100D10000ED0042D18D111E080212143084600F0A7
:100D200047F812E090212143084600F041F80CE01A
:100D300088212143084600F03BF806E09821214332
:100D4000084600F035F800E000BF00BF70BDF8B500
:100D500006460F46144639463046FFF7D1FF0025B8
:100D600004E0605D00F058F8681CC5B2605D0028C2
:100D7000F7D1F8BDFFF7FCFAFFF774FF06A20221D6
:100D80000120FFF7E4FF07A202210846FFF7DFFF7B
:100D900001E0FFF7E7FCFCE7C0CAD1B8BFC6BCBCA6
:100DA000000000004C434420B0B8C0FD000000002B
:100DB00010B50446F82000F00BF8F0212140084659
:100DC00000F006F82107080E00F002F810BD000040
:100DD00070B5044600251AE080202040802802D10A
:100DE00010200C49486180202040002802D11020AA
:100DF000084988610820074988613220FFF704FF0D
:100E00000820044948616006040E681CC5B2082D1C
:100E1000E2DB70BD8020004010B50446FA20FFF7E9
:100E2000D7FFF02121400846FFF7D2FF2107080E27
:100E3000FFF7CEFF10BD0000580E0000000000209C
:100E400004000000480200005C0E000004000020C6
:0C0E5000AC06000064020000000000007E
:0400000500000205F0
:00000001FF
