:020000040000FA
:10000000001000208D02000071050000A90400000E
:1000100000000000000000000000000000000000E0
:10002000000000000000000000000000E1050000EA
:100030000000000000000000DD050000BD0600001B
:1000400065070000D50700009F020000DF050000E3
:100050009F020000330300002D0700009F020000F4
:10006000E9060000290700009F0200004F0300007E
:100070004D030000E305000045080000AB0400004C
:1000800075030000770300007903000035030000CA
:1000900037030000390300003D030000C9050000DC
:1000A0009F020000D90500009F020000DB05000050
:1000B0006D0300006F030000710300007303000074
:1000C0000000000000000000000000000000000030
:1000D0000000000000000000000000000000000020
:1000E0000000000000000000000000000000000010
:1000F0000000000000000000000000000000000000
:1001000000000000000000000000000000000000EF
:1001100000000000000000000000000000000000DF
:1001200000000000000000000000000000000000CF
:1001300000000000000000000000000000000000BF
:1001400000000000000000000000000000000000AF
:10015000000000000000000000000000000000009F
:10016000000000000000000000000000000000008F
:10017000000000000000000000000000000000007F
:10018000000000000000000000000000000000006F
:10019000000000000000000000000000000000005F
:1001A000000000000000000000000000000000004F
:1001B000000000000000000000000000000000003F
:1001C000000000000000000000000000000000002F
:1001D000000000000000000000000000000000001F
:1001E000000000000000000000000000000000000F
:1001F00000000000000000000000000000000000FF
:100200000000000000F002F800F030F80CA030C848
:10021000083824182D18A246671EAB4654465D4682
:10022000AC4201D100F022F87E460F3E0FCCB6461C
:100230000126334200D0FB1AA246AB46334318478F
:10024000C0070000D007000000230024002500267E
:10025000103A01D378C1FBD8520700D330C100D582
:100260000B6070471FB51FBD10B510BD00F02FF813
:100270001146FFF7F7FF00F06DFB00F047F803B4FD
:10028000FFF7F2FF03BC00F04DF80000084880477C
:1002900008480047FEE7FEE7FEE7FEE7FEE7FEE769
:1002A000FEE7000004480549054A064B7047000078
:1002B000C106000005020000A8030020A8060020D7
:1002C000A8040020A80400207047704770477546B6
:1002D00000F024F8AE46050069465346C008C00049
:1002E000854618B020B5FFF7DDFF60BC0027490840
:1002F000B6460026C0C5C0C5C0C5C0C5C0C5C0C5BE
:10030000C0C5C0C5403D49008D46704710B5044684
:10031000C046C0462046FFF7B2FF10BD00487047F8
:100320004803002001491820ABBEFEE7260002006A
:100330007047704770477047704700000248416936
:10034000012211434161704700800A4070477047A5
:1003500001B5009801E0401E00900028FBD108BDC7
:1003600010B500F0A5F900F0A1F810BD7047704776
:10037000704770477047704770470000F0B51C46E3
:100380001725474E474F130000F05DFA1009111969
:1003900021293139414951596169717981100A68BE
:1003A000AA430A603E60224302430A60F0BD4A68E5
:1003B000AA434A603E60224302434A60F0BD8A6815
:1003C000AA438A603E60224302438A60F0BDCA6845
:1003D000AA43CA603E6022430243CA60F0BD0A6974
:1003E000AA430A613E60224302430A61F0BD4A69A2
:1003F000AA434A613E60224302434A61F0BD8A69D2
:10040000AA438A613E60224302438A61F0BDCA6901
:10041000AA43CA613E6022430243CA61F0BD0A6A30
:10042000AA430A623E60224302430A62F0BD4A6A5E
:10043000AA434A623E60224302434A62F0BD8A6A8E
:10044000AA438A623E60224302438A62F0BDCA6ABE
:10045000AA43CA623E6022430243CA62F0BD0A6BED
:10046000AA430A633E60224302430A63F0BD4A6B1B
:10047000AA434A633E60224302434A63F0BD8A6B4B
:10048000AA438A633E60224302438A63F0BDCA6B7B
:10049000AA43CA633E6022430243CA63F0BD000020
:1004A0009A65FA050008084070477047F8B50023C0
:1004B0002E4C1A4621461846FFF760FF0023012202
:1004C00021461846FFF75AFF00230222214618460C
:1004D000FFF754FF0023032221461846FFF74EFF83
:1004E0000023042221461846FFF748FF0023052277
:1004F00021461846FFF742FF0023062221461846F0
:10050000FFF73CFF0023072221461846FFF736FF7E
:1005100016488030016A012211430162026A0221F9
:100520000A430262026A04231A430262036A08222F
:1005300013430362046A10231C430462056A2024E7
:1005400025430562066A40252E430662076A802617
:1005500037430762012747614161042141614261DC
:100560004361446145614661F8BD000000100040F0
:100570007047000007490648C861064840380168CE
:1005800002041143016001684900FCD57047000076
:100590009A65FA054010084030B5084B5C68084D74
:1005A0002C405C600901014390020143034A21434E
:1005B00004484032D061596030BD0000001008404E
:1005C0000EF3FFFF9A65FA050248016B0122114301
:1005D0000163704740400A4070477047704770475A
:1005E0007047704770B5214D1F4EEE611F4C403C67
:1005F000206B0121490308432063032207210020C7
:10060000FFF7CAFFFFF7B6FFEE6119486861EE61B8
:1006100028690121890488432861EE610020E06097
:10062000EE61E068000A0002E060EE61E0680F2120
:1006300009028843E060EE61606809048843E103D1
:1006400040186060EE616068072109078843A104D3
:1006500040186060EE61A06880088000801CA06087
:10066000A068C006FCD570BD9A65FA054010084028
:10067000CCCC5FA00B490A48C8610A484038816861
:10068000032212029143FF31FF310231816007489A
:10069000054941610021816103210161704700002A
:1006A0009A65FA0540100840E703000000E000E00A
:1006B00000B5FFF797FFFFF7DDFF00BD70470000B3
:1006C00008490748C8610023064ADB43403A1361E2
:1006D000C8615361C8619361C861D361704700000C
:1006E0009A65FA054010084070B50C4CA0680425C6
:1006F000A843A0600A492020C861FF20F53000F01F
:10070000AFF8A068A843A060002020600549A015AC
:100710000860A0682843A06070BD000000F00A4097
:100720008010004080E200E0704700000C48016942
:10073000022211430161016904221143016101692F
:1007400008221143016101694215114301610169E8
:1007500002151143016101695200114301617047A3
:1007600000C00A4030B5184A1368174C9D06403C3B
:1007700000211648002D14DA20255560828A002AAF
:100780000CD0521E8282428A114D521C92B2428279
:10079000AD5C2560FA2A04D3418202E001824182E5
:1007A0008175DA060ED52268084B048B863BE2542D
:1007B000828B521C8283028B521C92B20283642A67
:1007C00000D3018330BD00004000094080010020BB
:1007D0000000002030B5184A1368174C9D06403CB5
:1007E00000211648002D14DA20255560828A002A3F
:1007F0000CD0521E8282428A114D521C92B2428209
:10080000AD5C2560FA2A04D3418202E00182418274
:100810008175DA060ED52268084B048B863BE254BC
:10082000828B521C8283028B521C92B20283642AF6
:1008300000D3018330BD0000401009402403002094
:10084000A4010020704730B47446641E2578641CEF
:10085000AB4200D21D46635D5B00E31830BC184715
:100860000F4A0E49D1610E4940398A6803231B02A1
:100870009A43FF32FF3202328A607D21C900484329
:10088000084948610020886101220A610A69D3078A
:1008900001D0D203FAD50861886170479A65FA05DC
:1008A0004010084000E000E010B51448016A08223A
:1008B00011430162016A102211430162016A402260
:1008C00011430162026A80210A4302620C4C616199
:1008D0000C48FFF73DFD302000F058F80C2000F0E8
:1008E00055F8012000F052F8022000F04FF8802067
:1008F00000F04CF8E014A06110BD00008020004022
:1009000080000040FF0F000000B501280AD0022837
:100910000BD003280DD0042803D19820084300F001
:1009200035F800BD0846802101E0084690210843C3
:10093000F5E708468821FAE730B51546FFF7E4FFEA
:10094000002403E000F04EF8641CE4B2285D0028A7
:10095000F8D130BDFFF704FDFFF7A6FF012000F03E
:1009600015F8012104A20846FFF7E6FF04A20021C2
:100970000220FFF7E1FFEFE7CAB5D1E9D2BB0000E3
:100980004C434431323836340000000010B5044680
:10099000F82000F009F82009000100F005F8200710
:1009A000000E00F001F810BDF0B50D4D012600223B
:1009B00076022C15FF2701465F37C80900D06E610B
:1009C000080600D4AE61AC613846FFF7C1FC6C612B
:1009D0004806521C010ED2B2082AEED3F0BD000028
:1009E0008000004010B50446FA20FFF7DDFF200923
:1009F0000001FFF7D9FF2007000EFFF7D5FF10BD5C
:100A0000100A000000000020A806000048020000B4
:0400000500000205F0
:00000001FF
