:020000040000FA
:1000000000100020A9020000EF0800001D080000F9
:1000100000000000000000000000000000000000E0
:100020000000000000000000000000006309000064
:1000300000000000000000005F0900009D0A0000B1
:10004000A90B0000490C0000BB0200006109000080
:10005000BB0200004F0300004D0B0000BB0200007C
:10006000ED0A0000490B0000BB0200005B0300002A
:100070005903000065090000E90C0000ED080000CC
:100080007D0300007F030000810300005103000096
:1000900053030000550300005703000059090000F6
:1000A000BB0200005B090000BB0200005D0900000C
:1000B0007503000077030000790300007B03000054
:1000C0000000000000000000000000000000000030
:1000D0000000000000000000000000000000000020
:1000E0000000000000000000000000000000000010
:1000F0000000000000000000000000000000000000
:1001000000000000000000000000000000000000EF
:1001100000000000000000000000000000000000DF
:1001200000000000000000000000000000000000CF
:1001300000000000000000000000000000000000BF
:1001400000000000000000000000000000000000AF
:10015000000000000000000000000000000000009F
:10016000000000000000000000000000000000008F
:10017000000000000000000000000000000000007F
:10018000000000000000000000000000000000006F
:10019000000000000000000000000000000000005F
:1001A000000000000000000000000000000000004F
:1001B000000000000000000000000000000000003F
:1001C000000000000000000000000000000000002F
:1001D000000000000000000000000000000000001F
:1001E000000000000000000000000000000000000F
:1001F00000000000000000000000000000000000FF
:100200000000000000F002F800F03EF80CA030C83A
:10021000083824182D18A246671EAB4654465D4682
:10022000AC4201D100F030F87E460F3E0FCCB6460E
:100230000126334200D0FB1AA246AB46334318478F
:100240004C0E00006C0E0000103A02D378C878C142
:10025000FAD8520701D330C830C101D504680C6008
:10026000704700000023002400250026103A01D327
:1002700078C1FBD8520700D330C100D50B6070475E
:100280001FB51FBD10B510BD00F02FF81146FFF7C8
:10029000F7FF00F0A1FD00F047F803B4FFF7F2FF0D
:1002A00003BC00F04DF800000848804708480047AC
:1002B000FEE7FEE7FEE7FEE7FEE7FEE7FEE70000FB
:1002C00004480549054A064B70470000A10A000092
:1002D00005020000B8030020B8060020B804002082
:1002E000B8040020704770477047754600F024F846
:1002F000AE46050069465346C008C000854618B0A2
:1003000020B5FFF7DDFF60BC00274908B646002690
:10031000C0C5C0C5C0C5C0C5C0C5C0C5C0C5C0C5B5
:10032000403D49008D46704710B50446C046C04662
:100330002046FFF7B2FF10BD00487047540300206D
:1003400001491820ABBEFEE7260002007047704747
:1003500070477047704770477047704710B500F09E
:100360007CFA00F0E5F800F0FFFA00F077FB00F00F
:1003700056FA10BD70477047704770477047704716
:100380007047000070B51C46130000F0AEFC100969
:1003900015212D3945515D6975818D99A5B1BDC96D
:1003A0000D681726B5430D605F4B604E33602B46DA
:1003B000234303430B60B4E04D681726B5434D60FB
:1003C000594B5A4E33602B46234303434B60A8E0FE
:1003D0008D681726B5438D60534B544E33602B46C2
:1003E000234303438B609CE0CD681726B543CD6063
:1003F0004D4B4E4E33602B4623430343CB6090E07E
:100400000D691726B5430D61474B484E33602B46A7
:10041000234303430B6184E04D691726B5434D61C7
:10042000414B424E33602B46234303434B6178E0FC
:100430008D691726B5438D613B4B3C4E33602B468F
:10044000234303438B616CE0CD691726B543CD612F
:10045000354B364E33602B4623430343CB6160E07C
:100460000D6A1726B5430D622F4B304E33602B4675
:10047000234303430B6254E04D6A1726B5434D6294
:10048000294B2A4E33602B46234303434B6248E0FB
:100490008D6A1726B5438D62234B244E33602B465D
:1004A000234303438B623CE0CD6A1726B543CD62FC
:1004B0001D4B1E4E33602B4623430343CB6230E07B
:1004C0000D6B1726B5430D63174B184E33602B4643
:1004D000234303430B6324E04D6B1726B5434D6361
:1004E000114B124E33602B46234303434B6318E0FA
:1004F0008D6B1726B5438D630B4B0C4E33602B462B
:10050000234303438B630CE0CD6B1726B543CD63C8
:10051000054B064E33602B4623430343CB6300E079
:1005200000BF00BF70BD00009A65FA0500080840D2
:1005300000B500231A4655491846FFF723FF00234C
:10054000012252491846FFF71DFF002302224F499E
:100550001846FFF717FF002303224C491846FFF700
:1005600011FF0023042249491846FFF70BFF00231F
:10057000052246491846FFF705FF00230622434996
:100580001846FFF7FFFE0023072240491846FFF7F1
:10059000F9FE002308223D491846FFF7F3FE002329
:1005A00009223A491846FFF7EDFE00230A2237498F
:1005B0001846FFF7E7FE00230B2234491846FFF7E1
:1005C000E1FE00230C2231491846FFF7DBFE002331
:1005D0000D222E491846FFF7D5FE00230E222B4987
:1005E0001846FFF7CFFE00230F2228491846FFF7D1
:1005F000C9FE00231A46012189071846FFF7C2FEEB
:100600000023012291071846FFF7BCFE00230A22AF
:1006100051071846FFF7B6FE00230B220121890778
:100620001846FFF7AFFE002201218907104600F0AF
:100630002FF801229107002000F02AF80A22510722
:10064000002000F025F80B2201218907002000F08E
:100650001FF808220D49002000F01AF809220B4962
:10066000002000F015F80A220849002000F010F8D8
:100670000B220649002000F00BF800230C22012178
:1006800089071846FFF77EFE00BD000000100040FD
:1006900030B50446130000F028FB1009141F2A355A
:1006A000404B56616C77828D98A3AEB90868C0251F
:1006B000A8430860574B584D2B60034623430B60FB
:1006C000A5E04868C025A8434860524B524D2B60B6
:1006D000034623434B609AE08868C025A84388609E
:1006E0004C4B4D4D2B60034623438B608FE0C86815
:1006F000C025A843C860474B474D2B6003462343A2
:10070000CB6084E00869C025A8430861414B424D95
:100710002B60034623430B6179E04869C025A84359
:1007200048613C4B3C4D2B60034623434B616EE0DC
:100730008869C025A8438861364B374D2B60034636
:1007400023438B6163E0C869C025A843C861314B6E
:10075000314D2B6003462343CB6158E0086AC02526
:10076000A84308622B4B2C4D2B60034623430B629E
:100770004DE0486AC025A8434862264B264D2B60B1
:10078000034623434B6242E0886AC025A84388623F
:10079000204B214D2B60034623438B6237E0C86A10
:1007A000C025A843C8621B4B1B4D2B600346234347
:1007B000CB622CE0086BC025A8430863154B164D8F
:1007C0002B60034623430B6321E0486BC025A843FD
:1007D0004863104B104D2B60034623434B6316E0D8
:1007E000886BC025A84388630A4B0B4D2B600346DA
:1007F00023438B630BE0C86BC025A843C863054B3C
:10080000054D2B6003462343CB6300E000BF00BFD0
:1008100030BD00009A65FA0500080840704710B521
:100820000020C04300F07CFA172000F079FA06207F
:1008300000F076FA162000F073FA092000F070FA42
:10084000002000F06DFA102000F06AFA112000F08C
:1008500067FA122000F064FA10BD10B50020C04302
:1008600000F052FA0321081F00F06AFA172000F086
:100870004BFA0121172000F063FA062000F044FA39
:100880000021062000F05CFA162000F03DFA01215C
:10089000162000F055FA082000F036FA0221082050
:1008A00000F04EFA092000F02FFA0221092000F092
:1008B00047FA002000F028FA0321002000F040FA57
:1008C000012000F021FA0321012000F039FA05206F
:1008D00000F01AFA0021052000F032FA102000F092
:1008E00013FA0021102000F02BFA10BD704770475A
:1008F0000A480B49C8610A4840380068890508431E
:1009000007494039086000BF0548403800680121A8
:10091000890708400028F7D0704700009A65FA055B
:100920004010084030B5094C6468094D2C40074D13
:100930006C6023460C01044395022C432343054C71
:10094000024D4035EC61014C636030BD0010084041
:100950000EF3FFFF9A65FA057047704770477047BE
:10096000704770477047000000B539483949C86181
:1009700038484038006B0121490388434018354905
:1009800040390863032207210020FFF7CBFFFFF760
:10099000AFFF2F482F49C8612F4848612C48C861D4
:1009A000084600690121890488432A4908612848CA
:1009B000C861002027494039C86025482549C861D9
:1009C00024484038C068000A000222494039C86003
:1009D0001F482049C8611F484038C0680F210902DC
:1009E00088431C494039C86019481A49C8611948E8
:1009F000403840680F21090688430121C906401884
:100A000014494039486012481249C86111484038B9
:100A100040680721090788430121890740180D49CB
:100A2000403948600A480B49C8610A484038806824
:100A300080088000801C07494039886000BF054855
:100A400040388068C006C00F0028F8D000BD000004
:100A50009A65FA0540100840CCCC5FA00B480C49C1
:100A6000C8610B4840388068032109028843FF3081
:100A7000FF3002300649403988600648064948611F
:100A80000020886103200861704700009A65FA051C
:100A900040100840E703000000E000E0704700005D
:100AA00010481149C8610020C0430F49403908610E
:100AB0000C480D49C8610020C0430B4940394861CA
:100AC00008480949C8610020C04307494039886186
:100AD00004480549C8610020C04303494039C86142
:100AE000704700009A65FA054010084010B5144898
:100AF000806804218843124988601248006A802176
:100B000008431049086280208861322000F054F9BF
:100B100080200C4948610846006A802188430949C1
:100B200008620748806802218843054988600846B2
:100B3000806804218843001D0149886010BD0000C1
:100B400000F00A408010004070470000154800691E
:100B500002218843801C134908610846006904216A
:100B60008843001D0F490861084600690821884331
:100B700008300C4908610846006949158843401847
:100B80000849086108460069091588434018054965
:100B90000861084600690121C902884340180149DB
:100BA0000861704700C00A402449086820210140BC
:100BB000002924D02021214A51602149898A002915
:100BC00018DD1F49898A491E8AB21D498A82498ACD
:100BD000491C8AB21A494A82498A1A4A515C174A00
:100BE000403A11601649498AFA2908DB0022144963
:100BF0004A8204E0002212490A824A828A75102140
:100C00000140002918D00D4940390968CAB20C4981
:100C10000B8B8639CA548631898B491C8AB20849A4
:100C20008A83098B491C8AB205490A83098B642986
:100C300002DB002202490A8370470000400009409D
:100C40008C0100200C00002024490868202101406C
:100C5000002924D02021214A51602149898A002974
:100C600018DD1F49898A491E8AB21D498A82498A2C
:100C7000491C8AB21A494A82498A1A4A515C174A5F
:100C8000403A11601649498AFA2908DB00221449C2
:100C90004A8204E0002212490A824A828A7510219F
:100CA0000140002918D00D4940390968CAB20C49E1
:100CB0000B8B8639CA548631898B491C8AB2084904
:100CC0008A83098B491C8AB205490A83098B6429E6
:100CD00002DB002202490A837047000040100940ED
:100CE00030030020B0010020704730B47446641E09
:100CF0002578641CAB4204D3635D5B00E31830BC11
:100D000018471D46F8E70000002805DBC206D20E92
:100D100001219140014A11607047000080E200E02B
:100D2000002809DB00BF00BFC206D20E012191409E
:100D3000024A116000BF00BF7047000000E100E000
:100D400010B5002819DB1A4A03231B02D2188308A6
:100D50009B00D2588307DC0EFF23A3409A438B07E6
:100D60001B0E8407E40EA3401A43114B03242402F4
:100D70001B198408A4001A5118E00E4A03071B0F20
:100D8000083B9B089B00D2588307DC0EFF23A3403F
:100D90009A438B071B0E8407E40EA3401A43054BAE
:100DA0000407240F083CA408A4001A5110BD000039
:100DB00000E100E01CED00E07D21C90005E000BF7E
:100DC0000A46491E002AFBD102490246401E002A5B
:100DD000F5D1704788130000FFF7C0FA3A48006A5F
:100DE00001210843384908620846006A0221084385
:100DF000354908620846006A0421084332490862FE
:100E00000846006A082108432F4908620846006A1C
:100E1000102108432C4908620846006A2021084333
:100E2000294908620846006A4021084326490862A9
:100E30000846006A802108432349086242E000F026
:100E400047F8224908802048006AFF2108431E49CC
:100E500008621E480088012802D10A20FFF7ACFF73
:100E60001A480088022802D10A20FFF7A5FF174878
:100E70000088032802D10A20FFF79EFF134800884C
:100E8000042802D10A20FFF797FF104800880528A0
:100E900002D10A20FFF790FF0C480088062802D1F3
:100EA0000A20FFF789FF09480088092802D10A2093
:100EB000FFF782FF054800880D2802D10A20FFF7BE
:100EC0007BFF00BFBBE70000801000400000002057
:100ED000F8B514276A48006AFF2108436849086288
:100EE00008460069FF210902084065490861084673
:100EF0000069F0210843624908610846006A6149B7
:100F000008405F49086204225D4980398020FFF76C
:100F1000BFFB05225A4980398020FFF7B9FB062222
:100F2000574980398020FFF7B3FB072254498039A5
:100F30008020FFF7ADFB52480068C6B2F02E09D002
:100F400051480078022808DA4F480078401C4E4982
:100F5000087002E000204C4908704B4800780228D5
:100F600070D1F020344604404548006AFF21084310
:100F70004349086208460069FF21090208404049C8
:100F80000861084600690F2108433D490861084689
:100F9000006A3C49E1310840394908620022384979
:100FA00080398020FFF774FB012235498039802089
:100FB000FFF76EFB0222324980398020FFF768FB81
:100FC00003222F4980398020FFF762FB2C480068FC
:100FD00005072D0F20462843D7283ED012DCB7281E
:100FE0003DD008DC77283CD07B2832D07D2827D024
:100FF0007E2838D11CE0BB2829D0BD281ED0BE28B1
:1010000031D113E0E72826D006DCDB281DD0DD280F
:1010100012D0DE2827D107E0EB2814D0ED2809D024
:10102000EE2820D101271FE002271DE003271BE047
:10103000042719E0052717E0062715E0072713E026
:10104000082711E011E009270EE00A270CE00B2722
:101050000AE00C2708E00D2706E00E2704E00F2722
:1010600002E0102700E000BF00BF05480068C0B2E2
:10107000F02802D10020044908703846F8BD00006D
:10108000801000400FFF000008000020AC1000009E
:10109000000000200C00000048020000B810000012
:1010A0000C000020AC0600006402000000000000FC
:0810B000000000000000000038
:0400000500000205F0
:00000001FF
