:020000040000FA
:10000000001000208D02000001070000B105000073
:1000100000000000000000000000000000000000E0
:100020000000000000000000000000004D0900007A
:10003000000000000000000049090000290A00003B
:10004000910A0000010B00009F0200004B09000014
:100050009F02000033030000590A00009F020000C5
:10006000550A0000570A00009F0200004F030000DD
:100070004D0300004F090000710B0000B3050000A4
:1000800071030000730300007503000035030000D6
:1000900037030000390300003D030000350900006C
:1000A0009F020000450900009F0200004709000070
:1000B000690300006B0300006D0300006F03000084
:1000C0000000000000000000000000000000000030
:1000D0000000000000000000000000000000000020
:1000E0000000000000000000000000000000000010
:1000F0000000000000000000000000000000000000
:1001000000000000000000000000000000000000EF
:1001100000000000000000000000000000000000DF
:1001200000000000000000000000000000000000CF
:1001300000000000000000000000000000000000BF
:1001400000000000000000000000000000000000AF
:10015000000000000000000000000000000000009F
:10016000000000000000000000000000000000008F
:10017000000000000000000000000000000000007F
:10018000000000000000000000000000000000006F
:10019000000000000000000000000000000000005F
:1001A000000000000000000000000000000000004F
:1001B000000000000000000000000000000000003F
:1001C000000000000000000000000000000000002F
:1001D000000000000000000000000000000000001F
:1001E000000000000000000000000000000000000F
:1001F00000000000000000000000000000000000FF
:100200000000000000F002F800F030F80CA030C848
:10021000083824182D18A246671EAB4654465D4682
:10022000AC4201D100F022F87E460F3E0FCCB6461C
:100230000126334200D0FB1AA246AB46334318478F
:10024000100A0000200A00000023002400250026D8
:10025000103A01D378C1FBD8520700D330C100D582
:100260000B6070471FB51FBD10B510BD00F02FF813
:100270001146FFF7F7FF00F0ADFC00F047F803B4BC
:10028000FFF7F2FF03BC00F04DF80000084880477C
:1002900008480047FEE7FEE7FEE7FEE7FEE7FEE769
:1002A000FEE7000004480549054A064B7047000078
:1002B0002D0A000005020000A8030020A806002067
:1002C000A8040020A80400207047704770477546B6
:1002D00000F024F8AE46050069465346C008C00049
:1002E000854618B020B5FFF7DDFF60BC0027490840
:1002F000B6460026C0C5C0C5C0C5C0C5C0C5C0C5BE
:10030000C0C5C0C5403D49008D46704710B5044684
:10031000C046C0462046FFF7B2FF10BD00487047F8
:100320004803002001491820ABBEFEE7260002006A
:100330007047704770477047704700000248416936
:10034000012211434161704700800A4070477047A5
:1003500010B500F063FB00F071F900F02BF900F02C
:10036000EFF900F09FF810BD704770477047704775
:100370007047704770470000F0B51C461725474E80
:10038000474F130000F0F5FB1009111921293139ED
:10039000414951596169717981100A68AA430A601B
:1003A0003E60224302430A60F0BD4A68AA434A60A5
:1003B0003E60224302434A60F0BD8A68AA438A60D5
:1003C0003E60224302438A60F0BDCA68AA43CA6005
:1003D0003E6022430243CA60F0BD0A69AA430A6133
:1003E0003E60224302430A61F0BD4A69AA434A6162
:1003F0003E60224302434A61F0BD8A69AA438A6192
:100400003E60224302438A61F0BDCA69AA43CA61C1
:100410003E6022430243CA61F0BD0A6AAA430A62EF
:100420003E60224302430A62F0BD4A6AAA434A621E
:100430003E60224302434A62F0BD8A6AAA438A624E
:100440003E60224302438A62F0BDCA6AAA43CA627E
:100450003E6022430243CA62F0BD0A6BAA430A63AC
:100460003E60224302430A63F0BD4A6BAA434A63DB
:100470003E60224302434A63F0BD8A6BAA438A630B
:100480003E60224302438A63F0BDCA6BAA43CA633B
:100490003E6022430243CA63F0BD00009A65FA053C
:1004A000000808407047000070B5C0263E4C3F4D24
:1004B000130000F05EFB100910171E252C333A4183
:1004C000484F565D646B720F0A68B2430A602C6035
:1004D00002430A6070BD4A68B2434A602C6002431E
:1004E0004A6070BD8A68B2438A602C6002438A60A9
:1004F00070BDCA68B243CA602C600243CA6070BD56
:100500000A69B2430A612C6002430A6170BD4A69FC
:10051000B2434A612C6002434A6170BD8A69B243AA
:100520008A612C6002438A6170BDCA69B243CA61A4
:100530002C600243CA6170BD0A6AB2430A622C6031
:1005400002430A6270BD4A6AB2434A622C600243A7
:100550004A6270BD8A6AB2438A622C6002438A6230
:1005600070BDCA6AB243CA622C600243CA6270BDDF
:100570000A6BB2430A632C6002430A6370BD4A6B84
:10058000B2434A632C6002434A6370BD8A6BB24334
:100590008A632C6002438A6370BDCA6BB243CA632C
:1005A0002C600243CA6370BD9A65FA0500080840D2
:1005B0007047704710B500230124A4071A4621464E
:1005C0001846FFF7D9FE0023012221461846FFF7FF
:1005D000D3FE00230A2221461846FFF7CDFE002352
:1005E0000B2221461846FFF7C7FE00222146802035
:1005F000FFF75AFF012221468020FFF755FF0A220C
:1006000021468020FFF750FF0B2221468020FFF774
:100610004BFF0948016A490849000162016A022248
:1006200091430162016A021591430162016AC21499
:100630009143016210BD000080000040F8B5002326
:100640002E4C1A4621461846FFF796FE002301223B
:1006500021461846FFF790FE002302222146184645
:10066000FFF78AFE0023032221461846FFF784FE87
:100670000023042221461846FFF77EFE00230522B0
:1006800021461846FFF778FE002306222146184629
:10069000FFF772FE0023072221461846FFF76CFE83
:1006A00016488030016A012211430162026A022168
:1006B0000A430262026A04231A430262036A08229E
:1006C00013430362046A10231C430462056A202456
:1006D00025430562066A40252E430662076A802686
:1006E000374307620127476141610421416142614B
:1006F0004361446145614661F8BD0000001000405F
:10070000704730B500242046B030C0B2002100F060
:10071000C7F80021084600F0C3F80021102000F0BF
:10072000BFF800250121002000F0BAF86D1CEDB2E1
:10073000802DF7D3641CE4B2082CE4D330BD000054
:1007400070B54C4C206A102108432062206A202199
:1007500008432062206A402108432062206A8021E9
:1007600008432062206A4D002843206265616420AE
:1007700000F00CFAA561642000F008FA6561002120
:10078000AE2000F08DF80021084600F089F8002125
:10079000102000F085F80021402000F081F80021B1
:1007A000812000F07DF80021CF2000F079F80021B1
:1007B000A12000F075F80021C82000F071F8002198
:1007C000A62000F06DF80021A82000F069F80021B3
:1007D0003F2000F065F80021D32000F061F80021EF
:1007E000084600F05DF80021D52000F059F80021FE
:1007F000802000F055F80021D92000F051F80021A8
:10080000F12000F04DF80021DA2000F049F8002135
:10081000122000F045F80021DB2000F041F8002113
:10082000402000F03DF80021202000F039F80021A0
:10083000022000F035F800218D2000F031F8002171
:10084000142000F02DF80021A42000F029F8002148
:10085000A62000F025F80021AF2000F021F80021AB
:10086000AF2000F01DF8FFF74CFF0021084600F014
:1008700003F870BD8000004010B50446B031C8B226
:10088000002100F00DF820090021103000F008F8D8
:100890002007000F01210843002100F001F810BDDE
:1008A000F0B580230D4A002901D0536100E0936127
:1008B000102595610021402620249461070601D56A
:1008C000566100E0966154614006491C000EC9B2B1
:1008D0000829F2D355615361F0BD0000800000404B
:1008E00007490648C86106484038016802041143B8
:1008F000016001684900FCD5704700009A65FA055F
:100900004010084030B5084B5C68084D2C405C60D6
:100910000901014390020143034A21430448403244
:10092000D061596030BD0000001008400EF3FFFF99
:100930009A65FA050248016B012211430163704771
:1009400040400A4070477047704770477047704793
:1009500070B5214D1F4EEE611F4C403C206B0121B4
:10096000490308432063032207210020FFF7CAFF41
:10097000FFF7B6FFEE6119486861EE612869012151
:10098000890488432861EE610020E060EE61E06840
:10099000000A0002E060EE61E0680F21090288436E
:1009A000E060EE61606809048843E103401860601C
:1009B000EE616068072109078843A1044018606060
:1009C000EE61A06880088000801CA060A068C0065E
:1009D000FCD570BD9A65FA0540100840CCCC5FA0EC
:1009E0000B490A48C8610A4840388168032212024C
:1009F0009143FF31FF310231816007480549416170
:100A00000021816103210161704700009A65FA05A8
:100A100040100840E703000000E000E000B5FFF7E9
:100A200097FFFFF7DDFF00BD70470000084907484A
:100A3000C8610023064ADB43403A1361C861536131
:100A4000C8619361C861D361704700009A65FA0577
:100A500040100840704770470C480169022211435A
:100A600001610169042211430161016908221143F6
:100A700001610169421511430161016902151143C8
:100A800001610169520011430161704700C00A40D1
:100A900030B5184A1368174C9D06403C0021164893
:100AA000002D14DA20255560828A002A0CD0521EAF
:100AB0008282428A114D521C92B24282AD5C256004
:100AC000FA2A04D3418202E0018241828175DA066A
:100AD0000ED52268084B048B863BE254828B521C55
:100AE0008283028B521C92B20283642A00D3018358
:100AF00030BD0000400009408001002000000020BF
:100B000030B5184A1368174C9D06403C0021164822
:100B1000002D14DA20255560828A002A0CD0521E3E
:100B20008282428A114D521C92B24282AD5C256093
:100B3000FA2A04D3418202E0018241828175DA06F9
:100B40000ED52268084B048B863BE254828B521CE4
:100B50008283028B521C92B20283642A00D30183E7
:100B600030BD00004010094024030020A4010020F3
:100B7000704730B47446641E2578641CAB4200D2C2
:100B80001D46635D5B00E31830BC18470F4A0E49F1
:100B9000D1610E4940398A6803231B029A43FF3210
:100BA000FF3202328A607D21C9004843084948610A
:100BB0000020886101220A610A69D30701D0D203AB
:100BC000FAD50861886170479A65FA0540100840B7
:100BD00000E000E0FFF7BCFB1C48026AFF210A436B
:100BE000026203690A021340036103690B43036154
:100BF000016A11400162154C0022803C2146802090
:100C0000FFF752FC012221468020FFF74DFC022213
:100C100021468020FFF748FC032221468020FFF771
:100C200043FC042221468020FFF73EFC052221469A
:100C30008020FFF739FC062221468020FFF734FC94
:100C4000072221468020FFF72FFCFEE7801000409E
:100C5000600C000000000020A80600004802000010
:0400000500000205F0
:00000001FF
