:020000040000FA
:1000000000100020A9020000630900009108000010
:1000100000000000000000000000000000000000E0
:10002000000000000000000000000000E9090000DE
:100030000000000000000000E5090000210B0000A6
:10004000310C0000D10C0000BB020000E7090000E9
:10005000BB0200004F030000D50B0000BB020000F4
:10006000710B0000D10B0000BB0200006F03000009
:100070006D030000EB090000710D00006109000034
:1000800091030000F5030000F70300005103000096
:10009000530300005503000059030000CD09000080
:1000A000BB020000E1090000BB020000E309000000
:1000B000890300008B0300008D0300008F03000004
:1000C0000000000000000000000000000000000030
:1000D0000000000000000000000000000000000020
:1000E0000000000000000000000000000000000010
:1000F0000000000000000000000000000000000000
:1001000000000000000000000000000000000000EF
:1001100000000000000000000000000000000000DF
:1001200000000000000000000000000000000000CF
:1001300000000000000000000000000000000000BF
:1001400000000000000000000000000000000000AF
:10015000000000000000000000000000000000009F
:10016000000000000000000000000000000000008F
:10017000000000000000000000000000000000007F
:10018000000000000000000000000000000000006F
:10019000000000000000000000000000000000005F
:1001A000000000000000000000000000000000004F
:1001B000000000000000000000000000000000003F
:1001C000000000000000000000000000000000002F
:1001D000000000000000000000000000000000001F
:1001E000000000000000000000000000000000000F
:1001F00000000000000000000000000000000000FF
:100200000000000000F002F800F03EF80CA030C83A
:10021000083824182D18A246671EAB4654465D4682
:10022000AC4201D100F030F87E460F3E0FCCB6460E
:100230000126334200D0FB1AA246AB46334318478F
:10024000200F0000400F0000103A02D378C878C198
:10025000FAD8520701D330C830C101D504680C6008
:10026000704700000023002400250026103A01D327
:1002700078C1FBD8520700D330C100D50B6070475E
:100280001FB51FBD10B510BD00F02FF81146FFF7C8
:10029000F7FF00F0E1FD00F047F803B4FFF7F2FFCD
:1002A00003BC00F04DF800000848804708480047AC
:1002B000FEE7FEE7FEE7FEE7FEE7FEE7FEE70000FB
:1002C00004480549054A064B70470000250B00000D
:1002D00005020000B8030020B8060020B804002082
:1002E000B8040020704770477047754600F024F846
:1002F000AE46050069465346C008C000854618B0A2
:1003000020B5FFF7DDFF60BC00274908B646002690
:10031000C0C5C0C5C0C5C0C5C0C5C0C5C0C5C0C5B5
:10032000403D49008D46704710B50446C046C04662
:100330002046FFF7B2FF10BD00487047540300206D
:1003400001491820ABBEFEE7260002007047704747
:1003500070477047704700000348406940084000FC
:10036000401C01494861704700800A40704770474F
:1003700010B500F0ACFA00F015F900F037FB00F012
:10038000AFFB00F086FA10BD7047704770477047AA
:1003900010B516480068012189020840002814D1D0
:1003A0001248006A8900084310490862881488616D
:1003B000C82000F041FD012000030C4948610846B7
:1003C000006A89148843094908621020002805DB67
:1003D000C206D20E01219140054A116000BF0120E2
:1003E000800202494031086010BD000080000040DA
:1003F00080E200E07047704770B51C46130000F0C3
:10040000B8FC100915212D3945515D6975818D990B
:10041000A5B1BDC90D681726B5430D605F4B604E91
:1004200033602B46234303430B60B4E04D6817262B
:10043000B5434D60594B5A4E33602B46234303431B
:100440004B60A8E08D681726B5438D60534B544E22
:1004500033602B46234303438B609CE0CD68172613
:10046000B543CD604D4B4E4E33602B462343034383
:10047000CB6090E00D691726B5430D61474B484EA0
:1004800033602B46234303430B6184E04D691726F9
:10049000B5434D61414B424E33602B4623430343EA
:1004A0004B6178E08D691726B5438D613B4B3C4E1F
:1004B00033602B46234303438B616CE0CD691726E1
:1004C000B543CD61354B364E33602B462343034352
:1004D000CB6160E00D6A1726B5430D622F4B304E9D
:1004E00033602B46234303430B6254E04D6A1726C7
:1004F000B5434D62294B2A4E33602B4623430343B9
:100500004B6248E08D6A1726B5438D62234B244E1B
:1005100033602B46234303438B623CE0CD6A1726AE
:10052000B543CD621D4B1E4E33602B462343034320
:10053000CB6230E00D6B1726B5430D63174B184E99
:1005400033602B46234303430B6324E04D6B172694
:10055000B5434D63114B124E33602B462343034387
:100560004B6318E08D6B1726B5438D630B4B0C4E18
:1005700033602B46234303438B630CE0CD6B17267C
:10058000B543CD63054B064E33602B4623430343EF
:10059000CB6300E000BF00BF70BD00009A65FA05A4
:1005A0000008084000B500231A4655491846FFF7D1
:1005B00023FF0023012252491846FFF71DFF0023A5
:1005C00002224F491846FFF717FF002303224C4928
:1005D0001846FFF711FF0023042249491846FFF788
:1005E0000BFF0023052246491846FFF705FF0023AD
:1005F000062243491846FFF7FFFE00230722404921
:100600001846FFF7F9FE002308223D491846FFF778
:10061000F3FE002309223A491846FFF7EDFE0023B6
:100620000A2237491846FFF7E7FE00230B22344918
:100630001846FFF7E1FE00230C2231491846FFF768
:10064000DBFE00230D222E491846FFF7D5FE0023BE
:100650000E222B491846FFF7CFFE00230F22284910
:100660001846FFF7C9FE00231A46012189071846DC
:10067000FFF7C2FE0023012291071846FFF7BCFED8
:1006800000230A2251071846FFF7B6FE00230B226B
:10069000012189071846FFF7AFFE002201218907D3
:1006A000104600F02FF801229107002000F02AF8F0
:1006B0000A225107002000F025F80B2201218907AA
:1006C000002000F01FF808220D49002000F01AF861
:1006D00009220B49002000F015F80A2208490020E1
:1006E00000F010F80B220649002000F00BF8002360
:1006F0000C22012189071846FFF77EFE00BD00008D
:100700000010004030B50446130000F032FB100921
:10071000141F2A35404B56616C77828D98A3AEB971
:100720000868C025A8430860574B584D2B60034606
:1007300023430B60A5E04868C025A8434860524B9E
:10074000524D2B60034623434B609AE08868C025D6
:10075000A84388604C4B4D4D2B60034623438B6070
:100760008FE0C868C025A843C860474B474D2B6041
:1007700003462343CB6084E00869C025A843086191
:10078000414B424D2B60034623430B6179E048699E
:10079000C025A84348613C4B3C4D2B600346234396
:1007A0004B616EE08869C025A8438861364B374DA0
:1007B0002B60034623438B6163E0C869C025A843CF
:1007C000C861314B314D2B6003462343CB6158E068
:1007D000086AC025A84308622B4B2C4D2B600346AA
:1007E00023430B624DE0486AC025A8434862264B6C
:1007F000264D2B60034623434B6242E0886AC025A6
:10080000A8438862204B214D2B60034623438B6213
:1008100037E0C86AC025A843C8621B4B1B4D2B603C
:1008200003462343CB622CE0086BC025A843086332
:10083000154B164D2B60034623430B6321E0486B99
:10084000C025A8434863104B104D2B60034623433B
:100850004B6316E0886BC025A84388630A4B0B4D99
:100860002B60034623438B630BE0C86BC025A84372
:10087000C863054B054D2B6003462343CB6300E063
:1008800000BF00BF30BD00009A65FA0500080840AF
:10089000704710B50020C04300F086FA172000F022
:1008A00083FA062000F080FA162000F07DFA092075
:1008B00000F07AFA002000F077FA102000F074FAC5
:1008C000112000F071FA122000F06EFA10BD10B580
:1008D0000020C04300F05CFA0321081F00F070FA0A
:1008E000172000F055FA0121172000F069FA0620C0
:1008F00000F04EFA0021062000F062FA162000F007
:1009000047FA0121162000F05BFA082000F040FAB7
:100910000221082000F054FA092000F039FA0221DF
:10092000092000F04DFA002000F032FA03210020E7
:1009300000F046FA012000F02BFA0321012000F01C
:100940003FFA052000F024FA0021052000F038FAD3
:10095000102000F01DFA0021102000F031FA10BD27
:10096000704770470A480B49C8610A484038006818
:100970008905084307494039086000BF05484038E9
:1009800000680121890708400028F7D0704700005F
:100990009A65FA054010084030B5094C6468094D65
:1009A0002C40074D6C6023460C01044395022C43F8
:1009B0002343054C024D4035EC61014C636030BD72
:1009C000001008400EF3FFFF9A65FA050348006B1C
:1009D00040084000401C01490863704740400A40FD
:1009E00070477047704770477047704700B5394887
:1009F0003949C86138484038006B012149038843B0
:100A00004018354940390863032207210020FFF7C9
:100A1000C3FFFFF7A7FF2F482F49C8612F48486140
:100A20002C48C861084600690121890488432A4985
:100A300008612848C861002027494039C860254816
:100A40002549C86124484038C068000A000222498C
:100A50004039C8601F482049C8611F484038C068F5
:100A60000F21090288431C494039C86019481A49B6
:100A7000C8611948403840680F21090688430121A0
:100A8000C906401814494039486012481249C861E3
:100A90001148403840680721090788430121890728
:100AA00040180D49403948600A480B49C8610A4856
:100AB0004038806880088000801C07494039886081
:100AC00000BF054840388068C006C00F0028F8D035
:100AD00000BD00009A65FA0540100840CCCC5FA02C
:100AE0000B480C49C8610B48403880680321090253
:100AF0008843FF30FF30023006494039886006489D
:100B000006494861002088610320086170470000A1
:100B10009A65FA0540100840E703000000E000E095
:100B20007047000010481149C8610020C0430F49B8
:100B3000403908610C480D49C8610020C0430B4989
:100B40004039486108480949C8610020C043074945
:100B50004039886104480549C8610020C043034901
:100B60004039C861704700009A65FA054010084096
:100B700010B51548806804218843134988601348DC
:100B8000006A01210903084310490862881488613A
:100B9000322000F051F9012000030C494861084659
:100BA000006A89148843094908620748806802215D
:100BB0008843054988600846806804218843001DF1
:100BC0000149886010BD000000F00A40800000402C
:100BD000704700001548006902218843801C1349B2
:100BE00008610846006904218843001D0F49086117
:100BF000084600690821884308300C490861084606
:100C00000069491588434018084908610846006989
:100C10000915884340180549086108460069012103
:100C2000C9028843401801490861704700C00A4062
:100C30002449086820210140002924D02021214A8C
:100C400051602149898A002918DD1F49898A491E76
:100C50008AB21D498A82498A491C8AB21A494A8243
:100C6000498A1A4A515C174A403A11601649498A22
:100C7000FA2908DB002214494A8204E000221249C2
:100C80000A824A828A7510210140002918D00D4934
:100C900040390968CAB20C490B8B8639CA5486316F
:100CA000898B491C8AB208498A83098B491C8AB2FC
:100CB00005490A83098B642902DB002202490A8361
:100CC00070470000400009408C0100200C0000200B
:100CD0002449086820210140002924D02021214AEC
:100CE00051602149898A002918DD1F49898A491ED6
:100CF0008AB21D498A82498A491C8AB21A494A82A3
:100D0000498A1A4A515C174A403A11601649498A81
:100D1000FA2908DB002214494A8204E00022124921
:100D20000A824A828A7510210140002918D00D4993
:100D300040390968CAB20C490B8B8639CA548631CE
:100D4000898B491C8AB208498A83098B491C8AB25B
:100D500005490A83098B642902DB002202490A83C0
:100D6000704700004010094030030020B00100200F
:100D7000704730B47446641E2578641CAB4204D3BB
:100D8000635D5B00E31830BC18471D46F8E70000C0
:100D9000002805DBC206D20E01219140014A1160F4
:100DA0007047000080E200E0002805DBC206D20E9A
:100DB00001219140014A11607047000000E100E00C
:100DC00010B5002819DB1A4A03231B02D218830826
:100DD0009B00D2588307DC0EFF23A3409A438B0766
:100DE0001B0E8407E40EA3401A43114B0324240274
:100DF0001B198408A4001A5118E00E4A03071B0FA0
:100E0000083B9B089B00D2588307DC0EFF23A340BE
:100E10009A438B071B0E8407E40EA3401A43054B2D
:100E20000407240F083CA408A4001A5110BD0000B8
:100E300000E100E01CED00E07D21C90005E000BFFD
:100E40000A46491E002AFBD102490246401E002ADA
:100E5000F5D1704788130000FFF78AFA4E48006A00
:100E60000121090308434C490862881448614B4832
:100E7000006A01210843494908620846006A0221C4
:100E80000843464908620846006A0421084343496A
:100E900008620846006A082108434049086208467B
:100EA000006A102108433D4908620846006A202173
:100EB00008433A4908620846006A40210843374916
:100EC00008620846006A80210843344908620846DF
:100ED000006A89150843314908620846006A4915C5
:100EE00008432E4908620846006A091508432B4941
:100EF00008624FE000F056F829490880084600884B
:100F0000012806D10003244988610A20FFF794FFD5
:100F100003E001200003204948612148008802289D
:100F200006D1C0021C4988610A20FFF785FF03E053
:100F3000012000031849486119480088032807D197
:100F400001200003144988610A20FFF775FF03E0C0
:100F5000012000031049486111480088042806D187
:100F600080020D4988610A20FFF766FF03E0012037
:100F70000003094948610A480088102806D1000288
:100F8000054988610A20FFF757FF03E001200003AD
:100F900001494861AEE70000801000408000004039
:100FA00000000020F8B514276A48006AFF210843B2
:100FB0006849086208460069FF210902084065493E
:100FC000086108460069F021084362490861084643
:100FD000006A614908405F49086204225D4980391E
:100FE0008020FFF78FFB05225A4980398020FFF7C8
:100FF00089FB0622574980398020FFF783FB0722AF
:10100000544980398020FFF77DFB52480068C6B202
:10101000F02E09D051480078022808DA4F480078AD
:10102000401C4E49087002E000204C4908704B48B3
:101030000078022870D1F020344604404548006A08
:10104000FF2108434349086208460069FF2109025D
:10105000084040490861084600690F2108433D499E
:1010600008610846006A3C49E13108403949086294
:101070000022384980398020FFF744FB012235499E
:1010800080398020FFF73EFB0222324980398020E0
:10109000FFF738FB03222F4980398020FFF732FB0E
:1010A0002C48006805072D0F20462843D7283ED03E
:1010B00012DCB7283DD008DC77283CD07B2832D022
:1010C0007D2827D07E2838D11CE0BB2829D0BD2818
:1010D0001ED0BE2831D113E0E72826D006DCDB285D
:1010E0001DD0DD2812D0DE2827D107E0EB2814D050
:1010F000ED2809D0EE2820D101271FE002271DE0AE
:1011000003271BE0042719E0052717E0062715E051
:10111000072713E0082711E011E009270EE00A274E
:101120000CE00B270AE00C2708E00D2706E00E274D
:1011300004E00F2702E0102700E000BF00BF0548D1
:101140000068C0B2F02802D1002004490870384677
:10115000F8BD0000801000400FFF000008000020D4
:1011600080110000000000200C0000004802000078
:101170008C1100000C000020AC060000640200008E
:0C11800000000000000000000000000063
:0400000500000205F0
:00000001FF
